:1000000012C02CC02BC02AC029C028C027C026C0BF
:1000100025C024C023C022C021C020C01FC01EC0D4
:100020001DC01CC01BC011241FBECFE5D4E0DEBF25
:10003000CDBF10E0A0E6B0E0EEE7F3E002C005902F
:100040000D92A03AB107D9F710E0A0EAB0E001C0E4
:100050001D92A03AB107E1F74DD08FC1D1CF82BB3D
:10006000A898A998AA9A8FE19EE40197F1F700C099
:100070000000AA988FE19EE40197F1F700C000000C
:10008000089582BBA89AA998AA9A8FE19EE4019745
:10009000F1F700C00000AA988FE19EE40197F1F704
:1000A00000C00000089588E3DADF8EE0D8DF80E842
:1000B000D6DF86E0D4DF81E0D2DF08950F931F936F
:1000C000CF93DF93082F192FC0E0D0E009C0D9DF0C
:1000D0002196C031D10521F480ECC1DF86E0BFDF7D
:1000E000F80181918F01882391F7DF91CF911F91C2
:1000F0000F9108952F923F924F925F926F927F924D
:100100008F929F92AF92BF92CF92DF92EF92FF9227
:100110000F931F93CF93DF93CDB7DEB72D970FB615
:10012000F894DEBF0FBECDBF8FEF81BB84B3876075
:1001300084BB88B38F6088BBBC9AC49A80918C00C2
:1001400090918D009A838983FE01339688E0DF01C8
:100150001D928A95E9F7A7DF11E07E010894E11C62
:10016000F11C0F2EF6E9CF2EF0E0DF2EF02D0F2E32
:10017000FAE68F2EF0E09F2EF02DEB86FC86CD86E2
:100180007D2C0F2EFCE64F2EF0E05F2EF02D81E04F
:1001900066DF80E690E092DF80EC61DF19820F2E4F
:1001A000F1E3AF2EBB24F02D00E0662463940F2E04
:1001B000F2E32F2E3324F02D03C0162D01C0102F93
:1001C000B09920C01123E1F3C40178DFF701019059
:1001D0000020E9F73197B182A082F7010190002059
:1001E000E9F73197CF018E199F09F60101900020A0
:1001F000E9F73197EC19FD098E179F0709F46DC0D7
:10020000102FDECFB19920C01123D1F2C20156DFE9
:10021000F70101900020E9F7319731822082F70140
:1002200001900020E9F73197CF018E199F09F6015F
:1002300001900020E9F73197EC19FD098E179F070F
:1002400009F44BC0102FBCCFB29923C0112309F47D
:10025000B7CF8EE690E032DFF70101900020E9F79A
:10026000319783E390E091838083F7010190002030
:10027000E9F73197CF018E199F09F601019000200F
:10028000E9F73197EC19FD098E179F0731F1102F0F
:1002900097CFB39992CF112309F492CF80E790E0E2
:1002A0000DDFF70101900020E9F73197A4E3B0E0FA
:1002B000B183A083F70101900020E9F73197CF01C6
:1002C0008E199F09F60101900020E9F73197EC198A
:1002D000FD098E179F0709F072CF8FEF94E3ACE012
:1002E00081509040A040E1F700C000008B859C85C4
:1002F0006D85772D39D0282F392F2115310521F51E
:1003000081E0ADDE82E790E0D9DE98B380E1892715
:1003100088BB80E090E02D960FB6F894DEBF0FBE4C
:10032000CDBFDF91CF911F910F91FF90EF90DF90A4
:10033000CF90BF90AF909F908F907F906F905F9085
:100340004F903F902F90089581E089DE8EE790E0F6
:10035000B5DE8FEF99E6A8E181509040A040E1F72B
:1003600000C0000010E013CFFB01DC018D91019073
:0E03700080190110D9F3990B0895F894FFCF6E
:10037E0050617373776F72643F0031003200330047
:10038E0034005375636365737366756C6C00556EDC
:10039E007375636365737366756C6C0000000000A3
:1003AE0000000000000031323334343332310000AB
:00000001FF
